:100B2500010C08C10302080000020D0000C180C1CC
:070B350001020A03E8C102FE
:100AF7007580FF7590FFD290D291D292C293D29413
:100B0700E4F5A0E58954F04401F589758C3C758AB4
:0E0B1700B0D2A9C28CD288D28AD2A8D2AA2289
:100AAB00E589540F4410F589C202C293D201C37475
:100ABB0020950BFF744E950AAB07FAE4C39FFFE436
:100ACB009AFE74019400FDE49400FC7808120B6903
:100ADB008F8DC37420950BFF744E950AAB07FAE408
:0C0AEB00C39FFFE49A8F8BD2ABD28E2207
:0B0B8B00EFD3940840027F088FA022E7
:100B3D007F01E4FEAD80FCED5F60010EEF25E0FF6F
:060B4D000CBC08F38E0C45
:010B5300227F
:0E0B7D00E50C7005C291D29022D291C2902256
:030003000208A848
:1008A800C0E0C0D075D000C000C002C003C004C002
:1008B80005C006C007200368E50CD394004061D248
:1008C80003750A07750BD0D201208F40C28EC20271
:1008D800C2937420950BFF744E950AAB07FAE4C3D4
:1008E8009FFFE49AFE74019400FDE49400FC7808EC
:1008F800120B698F8DC37420950BFF744E950AAB4C
:1009080007FAE4C39FFFE49A8F8BD28EC200A2003D
:100918009292750800750900750D00750E00D28C4D
:10092800D007D006D005D004D003D002D000D0D054
:03093800D0E032DA
:0300130002093BA4
:10093B00C0E0C0D075D000C000C002C003C004C06E
:10094B0005C006C007200362D203750A07750BD0DA
:10095B00D201208F41C28EC202C293C37420950B69
:10096B00FF744E950AAB07FAE4C39FFFE49AFE743B
:10097B00019400FDE49400FC7808120B698F8DC381
:10098B007420950BFF744E950AAB07FAE4C39FFFD7
:10099B00E49A8F8BD28EC200A200929275080075DA
:1009AB000900750D00750E00D28CD007D006D0054E
:0D09BB00D004D003D002D000D0D0D0E03264
:03000B00020A5492
:100A5400C0E0C0D0758C3C758AB0300345050EE506
:100A64000E7002050DC3E50E9414E50D9400400CC0
:100A7400750D00750E00B200A20092920509E509F9
:100A840070020508C3E50994C8E5089400401330D2
:100A94009410750A03750BE8D200A2009292C20367
:070AA400C28CD0D0D0E0327B
:03001B00020800D8
:10080000C0E0C0D075D000C000C002C003C004C0AA
:1008100005C006C007200108C28EC293C2028075BF
:1008200030023FC293C202C37420950BFF744E95F1
:100830000AAB07FAE4C39FFFE49AFE74019400FD3B
:10084000E49400FC7808120B698F8DC37420950B1B
:10085000FF744E950AAB07FAE4C39FFFE49A8F8BAF
:100860008033D293D202AE0AAF0BAB07AA06E4C321
:100870009FFFE49EFE74019400FDE49400FC780860
:10088000120B698F8DAE0AAF0BAB07AA06E4C39FAC
:10089000FFE49E8F8BD007D006D005D004D003D0C4
:0808A00002D000D0D0D0E032FC
:100B5400120AF7120AABD2AF120B3D120B7DAF0C87
:050B6400120B8B80F371
:030000000209C82A
:0C09C800787FE4F6D8FD758120020A0F4C
:100B6900E86010ECA2E713FCED13FDEE13FEEF13A2
:040B7900FFD8F0228F
:1009D400020B54E493A3F8E493A34003F68001F2DA
:1009E40008DFF48029E493A3F85407240CC8C33324
:1009F400C4540F4420C8834004F456800146F6DFF3
:100A0400E4800B0102040810204080900B25E47E52
:100A1400019360BCA3FF543F30E509541FFEE493E7
:100A2400A360010ECF54C025E060A840B8E493A3AE
:100A3400FAE493A3F8E493A3C8C582C8CAC583CAD9
:100A4400F0A3C8C582C8CAC583CADFE9DEE780BE91
:010B3C0000B8
:00000001FF
